{
  "_format": "hh-sol-artifact-1",
  "contractName": "chainQ",
  "sourceName": "contracts/ChainQ-scroll.sol",
  "abi": [
    {
      "inputs": [
        {
          "internalType": "address",
          "name": "target",
          "type": "address"
        }
      ],
      "name": "AddressEmptyCode",
      "type": "error"
    },
    {
      "inputs": [
        {
          "internalType": "address",
          "name": "implementation",
          "type": "address"
        }
      ],
      "name": "ERC1967InvalidImplementation",
      "type": "error"
    },
    {
      "inputs": [],
      "name": "ERC1967NonPayable",
      "type": "error"
    },
    {
      "inputs": [],
      "name": "FailedInnerCall",
      "type": "error"
    },
    {
      "inputs": [],
      "name": "InvalidInitialization",
      "type": "error"
    },
    {
      "inputs": [],
      "name": "NotInitializing",
      "type": "error"
    },
    {
      "inputs": [
        {
          "internalType": "address",
          "name": "owner",
          "type": "address"
        }
      ],
      "name": "OwnableInvalidOwner",
      "type": "error"
    },
    {
      "inputs": [
        {
          "internalType": "address",
          "name": "account",
          "type": "address"
        }
      ],
      "name": "OwnableUnauthorizedAccount",
      "type": "error"
    },
    {
      "inputs": [],
      "name": "UUPSUnauthorizedCallContext",
      "type": "error"
    },
    {
      "inputs": [
        {
          "internalType": "bytes32",
          "name": "slot",
          "type": "bytes32"
        }
      ],
      "name": "UUPSUnsupportedProxiableUUID",
      "type": "error"
    },
    {
      "anonymous": false,
      "inputs": [
        {
          "indexed": true,
          "internalType": "address",
          "name": "user",
          "type": "address"
        },
        {
          "indexed": false,
          "internalType": "uint256",
          "name": "amount",
          "type": "uint256"
        }
      ],
      "name": "BalanceWithdrawn",
      "type": "event"
    },
    {
      "anonymous": false,
      "inputs": [
        {
          "indexed": false,
          "internalType": "uint64",
          "name": "version",
          "type": "uint64"
        }
      ],
      "name": "Initialized",
      "type": "event"
    },
    {
      "anonymous": false,
      "inputs": [
        {
          "indexed": true,
          "internalType": "address",
          "name": "previousOwner",
          "type": "address"
        },
        {
          "indexed": true,
          "internalType": "address",
          "name": "newOwner",
          "type": "address"
        }
      ],
      "name": "OwnershipTransferred",
      "type": "event"
    },
    {
      "anonymous": false,
      "inputs": [
        {
          "indexed": false,
          "internalType": "uint256",
          "name": "newPrice",
          "type": "uint256"
        }
      ],
      "name": "SubscriptionPriceChanged",
      "type": "event"
    },
    {
      "anonymous": false,
      "inputs": [
        {
          "indexed": true,
          "internalType": "address",
          "name": "user",
          "type": "address"
        },
        {
          "indexed": false,
          "internalType": "uint256",
          "name": "amount",
          "type": "uint256"
        }
      ],
      "name": "SubscriptionPurchased",
      "type": "event"
    },
    {
      "anonymous": false,
      "inputs": [
        {
          "indexed": true,
          "internalType": "address",
          "name": "implementation",
          "type": "address"
        }
      ],
      "name": "Upgraded",
      "type": "event"
    },
    {
      "inputs": [],
      "name": "UPGRADE_INTERFACE_VERSION",
      "outputs": [
        {
          "internalType": "string",
          "name": "",
          "type": "string"
        }
      ],
      "stateMutability": "view",
      "type": "function"
    },
    {
      "inputs": [
        {
          "internalType": "address",
          "name": "",
          "type": "address"
        }
      ],
      "name": "balances",
      "outputs": [
        {
          "internalType": "uint256",
          "name": "",
          "type": "uint256"
        }
      ],
      "stateMutability": "view",
      "type": "function"
    },
    {
      "inputs": [
        {
          "internalType": "uint256",
          "name": "newPrice",
          "type": "uint256"
        }
      ],
      "name": "changeSubscriptionPrice",
      "outputs": [],
      "stateMutability": "nonpayable",
      "type": "function"
    },
    {
      "inputs": [],
      "name": "deleteSubscription",
      "outputs": [],
      "stateMutability": "nonpayable",
      "type": "function"
    },
    {
      "inputs": [],
      "name": "getContractBalance",
      "outputs": [
        {
          "internalType": "uint256",
          "name": "",
          "type": "uint256"
        }
      ],
      "stateMutability": "view",
      "type": "function"
    },
    {
      "inputs": [
        {
          "internalType": "address",
          "name": "user",
          "type": "address"
        }
      ],
      "name": "getSubscriptionStatus",
      "outputs": [
        {
          "internalType": "bool",
          "name": "hasSubscription",
          "type": "bool"
        },
        {
          "internalType": "uint256",
          "name": "expirationTimestamp",
          "type": "uint256"
        }
      ],
      "stateMutability": "view",
      "type": "function"
    },
    {
      "inputs": [
        {
          "internalType": "uint256",
          "name": "_subscriptionPrice",
          "type": "uint256"
        }
      ],
      "name": "initialize",
      "outputs": [],
      "stateMutability": "nonpayable",
      "type": "function"
    },
    {
      "inputs": [],
      "name": "owner",
      "outputs": [
        {
          "internalType": "address",
          "name": "",
          "type": "address"
        }
      ],
      "stateMutability": "view",
      "type": "function"
    },
    {
      "inputs": [],
      "name": "proxiableUUID",
      "outputs": [
        {
          "internalType": "bytes32",
          "name": "",
          "type": "bytes32"
        }
      ],
      "stateMutability": "view",
      "type": "function"
    },
    {
      "inputs": [],
      "name": "purchaseSubscription",
      "outputs": [],
      "stateMutability": "payable",
      "type": "function"
    },
    {
      "inputs": [],
      "name": "renounceOwnership",
      "outputs": [],
      "stateMutability": "nonpayable",
      "type": "function"
    },
    {
      "inputs": [],
      "name": "subscriptionPrice",
      "outputs": [
        {
          "internalType": "uint256",
          "name": "",
          "type": "uint256"
        }
      ],
      "stateMutability": "view",
      "type": "function"
    },
    {
      "inputs": [
        {
          "internalType": "address",
          "name": "",
          "type": "address"
        }
      ],
      "name": "subscriptions",
      "outputs": [
        {
          "internalType": "uint256",
          "name": "",
          "type": "uint256"
        }
      ],
      "stateMutability": "view",
      "type": "function"
    },
    {
      "inputs": [
        {
          "internalType": "address",
          "name": "newOwner",
          "type": "address"
        }
      ],
      "name": "transferOwnership",
      "outputs": [],
      "stateMutability": "nonpayable",
      "type": "function"
    },
    {
      "inputs": [
        {
          "internalType": "address",
          "name": "newImplementation",
          "type": "address"
        },
        {
          "internalType": "bytes",
          "name": "data",
          "type": "bytes"
        }
      ],
      "name": "upgradeToAndCall",
      "outputs": [],
      "stateMutability": "payable",
      "type": "function"
    },
    {
      "inputs": [
        {
          "internalType": "uint256",
          "name": "amount",
          "type": "uint256"
        }
      ],
      "name": "withdrawFunds",
      "outputs": [],
      "stateMutability": "nonpayable",
      "type": "function"
    },
    {
      "stateMutability": "payable",
      "type": "receive"
    }
  ],
  "bytecode": "0x60a06040523073ffffffffffffffffffffffffffffffffffffffff1660809073ffffffffffffffffffffffffffffffffffffffff1681525034801561004357600080fd5b50608051611b5e61006d60003960008181610b4d01528181610ba20152610d5d0152611b5e6000f3fe6080604052600436106100f75760003560e01c80638da5cb5b1161008a578063db1bed2211610059578063db1bed22146102f1578063f046395a146102fb578063f2fde38b14610338578063fe4b84df14610361576100fe565b80638da5cb5b14610259578063ad3cb1cc14610284578063bdc8e54c146102af578063cecea4c3146102da576100fe565b80634f1ef286116100c65780634f1ef286146101d057806352d1902d146101ec5780636f9fb98a14610217578063715018a614610242576100fe565b8063155dd5ee146101035780631ddda9b61461012c57806327e235e31461016a5780634c594446146101a7576100fe565b366100fe57005b600080fd5b34801561010f57600080fd5b5061012a6004803603810190610125919061138b565b61038a565b005b34801561013857600080fd5b50610153600480360381019061014e9190611416565b6104b6565b60405161016192919061146d565b60405180910390f35b34801561017657600080fd5b50610191600480360381019061018c9190611416565b610544565b60405161019e9190611496565b60405180910390f35b3480156101b357600080fd5b506101ce60048036038101906101c9919061138b565b61055c565b005b6101ea60048036038101906101e591906115f7565b6105a5565b005b3480156101f857600080fd5b506102016105c4565b60405161020e919061166c565b60405180910390f35b34801561022357600080fd5b5061022c6105f7565b6040516102399190611496565b60405180910390f35b34801561024e57600080fd5b506102576105ff565b005b34801561026557600080fd5b5061026e610613565b60405161027b9190611696565b60405180910390f35b34801561029057600080fd5b5061029961064b565b6040516102a69190611730565b60405180910390f35b3480156102bb57600080fd5b506102c4610684565b6040516102d19190611496565b60405180910390f35b3480156102e657600080fd5b506102ef61068a565b005b6102f96106d1565b005b34801561030757600080fd5b50610322600480360381019061031d9190611416565b610890565b60405161032f9190611496565b60405180910390f35b34801561034457600080fd5b5061035f600480360381019061035a9190611416565b6108a8565b005b34801561036d57600080fd5b506103886004803603810190610383919061138b565b61092e565b005b610392610ac4565b6000479050600081116103da576040517f08c379a00000000000000000000000000000000000000000000000000000000081526004016103d1906117c4565b60405180910390fd5b8082111561041d576040517f08c379a000000000000000000000000000000000000000000000000000000000815260040161041490611856565b60405180910390fd5b3373ffffffffffffffffffffffffffffffffffffffff166108fc839081150290604051600060405180830381858888f19350505050158015610463573d6000803e3d6000fd5b503373ffffffffffffffffffffffffffffffffffffffff167fddc398b321237a8d40ac914388309c2f52a08c134e4dc4ce61e32f57cb7d80f1836040516104aa9190611496565b60405180910390a25050565b60008042600160008573ffffffffffffffffffffffffffffffffffffffff1673ffffffffffffffffffffffffffffffffffffffff16815260200190815260200160002054119150600160008473ffffffffffffffffffffffffffffffffffffffff1673ffffffffffffffffffffffffffffffffffffffff168152602001908152602001600020549050915091565b60026020528060005260406000206000915090505481565b610564610ac4565b806000819055507f49bfff56105ab5af711a8d286cc440cd0e52c75a21f4a142331ce97464dfceda8160405161059a9190611496565b60405180910390a150565b6105ad610b4b565b6105b682610c31565b6105c08282610c3c565b5050565b60006105ce610d5b565b7f360894a13ba1a3210667c828492db98dca3e2076cc3735a920a3ca505d382bbc60001b905090565b600047905090565b610607610ac4565b6106116000610de2565b565b60008061061e610eb9565b90508060000160009054906101000a900473ffffffffffffffffffffffffffffffffffffffff1691505090565b6040518060400160405280600581526020017f352e302e3000000000000000000000000000000000000000000000000000000081525081565b60005481565b6000600160003373ffffffffffffffffffffffffffffffffffffffff1673ffffffffffffffffffffffffffffffffffffffff16815260200190815260200160002081905550565b600054341015610716576040517f08c379a000000000000000000000000000000000000000000000000000000000815260040161070d906118e8565b60405180910390fd5b6000600160003373ffffffffffffffffffffffffffffffffffffffff1673ffffffffffffffffffffffffffffffffffffffff1681526020019081526020016000205414610798576040517f08c379a000000000000000000000000000000000000000000000000000000000815260040161078f9061197a565b60405180910390fd5b62278d00426107a791906119c9565b600160003373ffffffffffffffffffffffffffffffffffffffff1673ffffffffffffffffffffffffffffffffffffffff1681526020019081526020016000208190555034600260003373ffffffffffffffffffffffffffffffffffffffff1673ffffffffffffffffffffffffffffffffffffffff168152602001908152602001600020600082825461083991906119c9565b925050819055503373ffffffffffffffffffffffffffffffffffffffff167f799bcc5d05a0d37fc0012dba6e154d1353b3b36495bf076daf88f7b1428a3f81346040516108869190611496565b60405180910390a2565b60016020528060005260406000206000915090505481565b6108b0610ac4565b600073ffffffffffffffffffffffffffffffffffffffff168173ffffffffffffffffffffffffffffffffffffffff16036109225760006040517f1e4fbdf70000000000000000000000000000000000000000000000000000000081526004016109199190611696565b60405180910390fd5b61092b81610de2565b50565b6000610938610ee1565b905060008160000160089054906101000a900460ff1615905060008260000160009054906101000a900467ffffffffffffffff1690506000808267ffffffffffffffff161480156109865750825b9050600060018367ffffffffffffffff161480156109bb575060003073ffffffffffffffffffffffffffffffffffffffff163b145b9050811580156109c9575080155b15610a00576040517ff92ee8a900000000000000000000000000000000000000000000000000000000815260040160405180910390fd5b60018560000160006101000a81548167ffffffffffffffff021916908367ffffffffffffffff1602179055508315610a505760018560000160086101000a81548160ff0219169083151502179055505b610a5933610f09565b856000819055508315610abc5760008560000160086101000a81548160ff0219169083151502179055507fc7f505b2f371ae2175ee4913f4499e1f2633a7b5936321eed1cdaeb6115181d26001604051610ab39190611a56565b60405180910390a15b505050505050565b610acc610f1d565b73ffffffffffffffffffffffffffffffffffffffff16610aea610613565b73ffffffffffffffffffffffffffffffffffffffff1614610b4957610b0d610f1d565b6040517f118cdaa7000000000000000000000000000000000000000000000000000000008152600401610b409190611696565b60405180910390fd5b565b7f000000000000000000000000000000000000000000000000000000000000000073ffffffffffffffffffffffffffffffffffffffff163073ffffffffffffffffffffffffffffffffffffffff161480610bf857507f000000000000000000000000000000000000000000000000000000000000000073ffffffffffffffffffffffffffffffffffffffff16610bdf610f25565b73ffffffffffffffffffffffffffffffffffffffff1614155b15610c2f576040517fe07c8dba00000000000000000000000000000000000000000000000000000000815260040160405180910390fd5b565b610c39610ac4565b50565b8173ffffffffffffffffffffffffffffffffffffffff166352d1902d6040518163ffffffff1660e01b8152600401602060405180830381865afa925050508015610ca457506040513d601f19601f82011682018060405250810190610ca19190611a9d565b60015b610ce557816040517f4c9c8ce3000000000000000000000000000000000000000000000000000000008152600401610cdc9190611696565b60405180910390fd5b7f360894a13ba1a3210667c828492db98dca3e2076cc3735a920a3ca505d382bbc60001b8114610d4c57806040517faa1d49a4000000000000000000000000000000000000000000000000000000008152600401610d43919061166c565b60405180910390fd5b610d568383610f7c565b505050565b7f000000000000000000000000000000000000000000000000000000000000000073ffffffffffffffffffffffffffffffffffffffff163073ffffffffffffffffffffffffffffffffffffffff1614610de0576040517fe07c8dba00000000000000000000000000000000000000000000000000000000815260040160405180910390fd5b565b6000610dec610eb9565b905060008160000160009054906101000a900473ffffffffffffffffffffffffffffffffffffffff169050828260000160006101000a81548173ffffffffffffffffffffffffffffffffffffffff021916908373ffffffffffffffffffffffffffffffffffffffff1602179055508273ffffffffffffffffffffffffffffffffffffffff168173ffffffffffffffffffffffffffffffffffffffff167f8be0079c531659141344cd1fd0a4f28419497f9722a3daafe3b4186f6b6457e060405160405180910390a3505050565b60007f9016d09d72d40fdae2fd8ceac6b6234c7706214fd39c1cd1e609a0528c199300905090565b60007ff0c57e16840df040f15088dc2f81fe391c3923bec73e23a9662efc9c229c6a00905090565b610f11610fef565b610f1a8161102f565b50565b600033905090565b6000610f537f360894a13ba1a3210667c828492db98dca3e2076cc3735a920a3ca505d382bbc60001b6110b5565b60000160009054906101000a900473ffffffffffffffffffffffffffffffffffffffff16905090565b610f85826110bf565b8173ffffffffffffffffffffffffffffffffffffffff167fbc7cd75a20ee27fd9adebab32041f755214dbc6bffa90cc0225b39da2e5c2d3b60405160405180910390a2600081511115610fe257610fdc828261118c565b50610feb565b610fea611210565b5b5050565b610ff761124d565b61102d576040517fd7e6bcf800000000000000000000000000000000000000000000000000000000815260040160405180910390fd5b565b611037610fef565b600073ffffffffffffffffffffffffffffffffffffffff168173ffffffffffffffffffffffffffffffffffffffff16036110a95760006040517f1e4fbdf70000000000000000000000000000000000000000000000000000000081526004016110a09190611696565b60405180910390fd5b6110b281610de2565b50565b6000819050919050565b60008173ffffffffffffffffffffffffffffffffffffffff163b0361111b57806040517f4c9c8ce30000000000000000000000000000000000000000000000000000000081526004016111129190611696565b60405180910390fd5b806111487f360894a13ba1a3210667c828492db98dca3e2076cc3735a920a3ca505d382bbc60001b6110b5565b60000160006101000a81548173ffffffffffffffffffffffffffffffffffffffff021916908373ffffffffffffffffffffffffffffffffffffffff16021790555050565b60606000808473ffffffffffffffffffffffffffffffffffffffff16846040516111b69190611b11565b600060405180830381855af49150503d80600081146111f1576040519150601f19603f3d011682016040523d82523d6000602084013e6111f6565b606091505b509150915061120685838361126d565b9250505092915050565b600034111561124b576040517fb398979f00000000000000000000000000000000000000000000000000000000815260040160405180910390fd5b565b6000611257610ee1565b60000160089054906101000a900460ff16905090565b6060826112825761127d826112fc565b6112f4565b600082511480156112aa575060008473ffffffffffffffffffffffffffffffffffffffff163b145b156112ec57836040517f9996b3150000000000000000000000000000000000000000000000000000000081526004016112e39190611696565b60405180910390fd5b8190506112f5565b5b9392505050565b60008151111561130f5780518082602001fd5b6040517f1425ea4200000000000000000000000000000000000000000000000000000000815260040160405180910390fd5b6000604051905090565b600080fd5b600080fd5b6000819050919050565b61136881611355565b811461137357600080fd5b50565b6000813590506113858161135f565b92915050565b6000602082840312156113a1576113a061134b565b5b60006113af84828501611376565b91505092915050565b600073ffffffffffffffffffffffffffffffffffffffff82169050919050565b60006113e3826113b8565b9050919050565b6113f3816113d8565b81146113fe57600080fd5b50565b600081359050611410816113ea565b92915050565b60006020828403121561142c5761142b61134b565b5b600061143a84828501611401565b91505092915050565b60008115159050919050565b61145881611443565b82525050565b61146781611355565b82525050565b6000604082019050611482600083018561144f565b61148f602083018461145e565b9392505050565b60006020820190506114ab600083018461145e565b92915050565b600080fd5b600080fd5b6000601f19601f8301169050919050565b7f4e487b7100000000000000000000000000000000000000000000000000000000600052604160045260246000fd5b611504826114bb565b810181811067ffffffffffffffff82111715611523576115226114cc565b5b80604052505050565b6000611536611341565b905061154282826114fb565b919050565b600067ffffffffffffffff821115611562576115616114cc565b5b61156b826114bb565b9050602081019050919050565b82818337600083830152505050565b600061159a61159584611547565b61152c565b9050828152602081018484840111156115b6576115b56114b6565b5b6115c1848285611578565b509392505050565b600082601f8301126115de576115dd6114b1565b5b81356115ee848260208601611587565b91505092915050565b6000806040838503121561160e5761160d61134b565b5b600061161c85828601611401565b925050602083013567ffffffffffffffff81111561163d5761163c611350565b5b611649858286016115c9565b9150509250929050565b6000819050919050565b61166681611653565b82525050565b6000602082019050611681600083018461165d565b92915050565b611690816113d8565b82525050565b60006020820190506116ab6000830184611687565b92915050565b600081519050919050565b600082825260208201905092915050565b60005b838110156116eb5780820151818401526020810190506116d0565b60008484015250505050565b6000611702826116b1565b61170c81856116bc565b935061171c8185602086016116cd565b611725816114bb565b840191505092915050565b6000602082019050818103600083015261174a81846116f7565b905092915050565b7f4e6f2066756e647320617661696c61626c6520666f722077697468647261776160008201527f6c00000000000000000000000000000000000000000000000000000000000000602082015250565b60006117ae6021836116bc565b91506117b982611752565b604082019050919050565b600060208201905081810360008301526117dd816117a1565b9050919050565b7f5769746864726177616c20616d6f756e74206578636565647320636f6e74726160008201527f63742062616c616e636500000000000000000000000000000000000000000000602082015250565b6000611840602a836116bc565b915061184b826117e4565b604082019050919050565b6000602082019050818103600083015261186f81611833565b9050919050565b7f496e73756666696369656e742066756e647320746f207075726368617365206160008201527f20737562736372697074696f6e00000000000000000000000000000000000000602082015250565b60006118d2602d836116bc565b91506118dd82611876565b604082019050919050565b60006020820190508181036000830152611901816118c5565b9050919050565b7f596f7520616c7265616479206861766520616e2061637469766520737562736360008201527f72697074696f6e00000000000000000000000000000000000000000000000000602082015250565b60006119646027836116bc565b915061196f82611908565b604082019050919050565b6000602082019050818103600083015261199381611957565b9050919050565b7f4e487b7100000000000000000000000000000000000000000000000000000000600052601160045260246000fd5b60006119d482611355565b91506119df83611355565b92508282019050808211156119f7576119f661199a565b5b92915050565b6000819050919050565b600067ffffffffffffffff82169050919050565b6000819050919050565b6000611a40611a3b611a36846119fd565b611a1b565b611a07565b9050919050565b611a5081611a25565b82525050565b6000602082019050611a6b6000830184611a47565b92915050565b611a7a81611653565b8114611a8557600080fd5b50565b600081519050611a9781611a71565b92915050565b600060208284031215611ab357611ab261134b565b5b6000611ac184828501611a88565b91505092915050565b600081519050919050565b600081905092915050565b6000611aeb82611aca565b611af58185611ad5565b9350611b058185602086016116cd565b80840191505092915050565b6000611b1d8284611ae0565b91508190509291505056fea26469706673582212204b96e2d2391e456b28afed434ce2d0b6f4873a816a9bc73c3526b27ea04504c864736f6c63430008150033",
  "linkReferences": {},
  "deployedLinkReferences": {}
}